{
  "address": "0x773404DEd49E80e23E814DD0Db32066d445f5337",
  "abi": [
    {
      "anonymous": false,
      "inputs": [
        {
          "indexed": false,
          "internalType": "uint256",
          "name": "newInterval",
          "type": "uint256"
        }
      ],
      "name": "ExecutionIntervalChanged",
      "type": "event"
    },
    {
      "anonymous": false,
      "inputs": [
        {
          "indexed": true,
          "internalType": "address",
          "name": "previousOwner",
          "type": "address"
        },
        {
          "indexed": true,
          "internalType": "address",
          "name": "newOwner",
          "type": "address"
        }
      ],
      "name": "OwnershipTransferred",
      "type": "event"
    },
    {
      "anonymous": false,
      "inputs": [
        {
          "indexed": true,
          "internalType": "uint256",
          "name": "id",
          "type": "uint256"
        },
        {
          "indexed": true,
          "internalType": "address",
          "name": "sender",
          "type": "address"
        },
        {
          "indexed": true,
          "internalType": "address",
          "name": "receiver",
          "type": "address"
        },
        {
          "indexed": false,
          "internalType": "address",
          "name": "token",
          "type": "address"
        },
        {
          "indexed": false,
          "internalType": "uint256",
          "name": "amount",
          "type": "uint256"
        },
        {
          "indexed": false,
          "internalType": "uint256",
          "name": "releaseTime",
          "type": "uint256"
        }
      ],
      "name": "Scheduled",
      "type": "event"
    },
    {
      "anonymous": false,
      "inputs": [
        {
          "indexed": true,
          "internalType": "uint256",
          "name": "id",
          "type": "uint256"
        },
        {
          "indexed": true,
          "internalType": "address",
          "name": "sender",
          "type": "address"
        },
        {
          "indexed": true,
          "internalType": "address",
          "name": "receiver",
          "type": "address"
        },
        {
          "indexed": false,
          "internalType": "address",
          "name": "token",
          "type": "address"
        },
        {
          "indexed": false,
          "internalType": "uint256",
          "name": "amount",
          "type": "uint256"
        },
        {
          "indexed": false,
          "internalType": "enum TokenSender.Status",
          "name": "status",
          "type": "uint8"
        }
      ],
      "name": "Sent",
      "type": "event"
    },
    {
      "inputs": [
        {
          "internalType": "address",
          "name": "_address",
          "type": "address"
        }
      ],
      "name": "addressSendLength",
      "outputs": [
        {
          "internalType": "uint256",
          "name": "",
          "type": "uint256"
        }
      ],
      "stateMutability": "view",
      "type": "function"
    },
    {
      "inputs": [
        {
          "internalType": "uint256",
          "name": "",
          "type": "uint256"
        }
      ],
      "name": "allSends",
      "outputs": [
        {
          "internalType": "uint256",
          "name": "id",
          "type": "uint256"
        },
        {
          "internalType": "address",
          "name": "sender",
          "type": "address"
        },
        {
          "internalType": "address",
          "name": "receiver",
          "type": "address"
        },
        {
          "internalType": "address",
          "name": "token",
          "type": "address"
        },
        {
          "internalType": "uint256",
          "name": "amount",
          "type": "uint256"
        },
        {
          "internalType": "uint256",
          "name": "releaseTime",
          "type": "uint256"
        },
        {
          "internalType": "enum TokenSender.Status",
          "name": "status",
          "type": "uint8"
        }
      ],
      "stateMutability": "view",
      "type": "function"
    },
    {
      "inputs": [],
      "name": "executeScheduledSends",
      "outputs": [],
      "stateMutability": "nonpayable",
      "type": "function"
    },
    {
      "inputs": [],
      "name": "executionInterval",
      "outputs": [
        {
          "internalType": "uint256",
          "name": "",
          "type": "uint256"
        }
      ],
      "stateMutability": "view",
      "type": "function"
    },
    {
      "inputs": [],
      "name": "nextScheduledSendId",
      "outputs": [
        {
          "internalType": "uint256",
          "name": "",
          "type": "uint256"
        }
      ],
      "stateMutability": "view",
      "type": "function"
    },
    {
      "inputs": [],
      "name": "owner",
      "outputs": [
        {
          "internalType": "address",
          "name": "",
          "type": "address"
        }
      ],
      "stateMutability": "view",
      "type": "function"
    },
    {
      "inputs": [],
      "name": "renounceOwnership",
      "outputs": [],
      "stateMutability": "nonpayable",
      "type": "function"
    },
    {
      "inputs": [
        {
          "internalType": "address",
          "name": "_receiver",
          "type": "address"
        },
        {
          "internalType": "address",
          "name": "_token",
          "type": "address"
        },
        {
          "internalType": "uint256",
          "name": "_amount",
          "type": "uint256"
        },
        {
          "internalType": "uint256",
          "name": "_releaseTime",
          "type": "uint256"
        }
      ],
      "name": "scheduleSend",
      "outputs": [],
      "stateMutability": "nonpayable",
      "type": "function"
    },
    {
      "inputs": [
        {
          "internalType": "uint256",
          "name": "",
          "type": "uint256"
        }
      ],
      "name": "scheduledSends",
      "outputs": [
        {
          "internalType": "uint256",
          "name": "",
          "type": "uint256"
        }
      ],
      "stateMutability": "view",
      "type": "function"
    },
    {
      "inputs": [
        {
          "internalType": "address",
          "name": "",
          "type": "address"
        },
        {
          "internalType": "uint256",
          "name": "",
          "type": "uint256"
        }
      ],
      "name": "sendsByAddress",
      "outputs": [
        {
          "internalType": "uint256",
          "name": "",
          "type": "uint256"
        }
      ],
      "stateMutability": "view",
      "type": "function"
    },
    {
      "inputs": [
        {
          "internalType": "uint256",
          "name": "_interval",
          "type": "uint256"
        }
      ],
      "name": "setExecutionInterval",
      "outputs": [],
      "stateMutability": "nonpayable",
      "type": "function"
    },
    {
      "inputs": [
        {
          "internalType": "address",
          "name": "newOwner",
          "type": "address"
        }
      ],
      "name": "transferOwnership",
      "outputs": [],
      "stateMutability": "nonpayable",
      "type": "function"
    }
  ],
  "transactionHash": "0xf2037e3f4778fa3b42ec24865284cbc0a0a192ad1a052d553fa12760df927ecb",
  "args": [],
  "numDeployments": 1,
  "solcInputHash": "82135ea23f0657c7fc70759415f62ee0",
  "bytecode": "0x608060405261038460055534801561001657600080fd5b5061002033610025565b610075565b600080546001600160a01b038381166001600160a01b0319831681178455604051919092169283917f8be0079c531659141344cd1fd0a4f28419497f9722a3daafe3b4186f6b6457e09190a35050565b610e8e806100846000396000f3fe608060405234801561001057600080fd5b50600436106100b45760003560e01c80639761f8ce116100715780639761f8ce146101515780639b067b7b1461015a578063cbfa04f21461016d578063cd4d6ef414610180578063e8c82cd614610193578063f2fde38b146101a657600080fd5b8063349ab10a146100b95780633a1f2499146100d55780634c9b808b146100fe5780634d5b82e314610124578063715018a61461012e5780638da5cb5b14610136575b600080fd5b6100c260045481565b6040519081526020015b60405180910390f35b6100c26100e3366004610c11565b6001600160a01b031660009081526003602052604090205490565b61011161010c366004610c33565b6101b9565b6040516100cc9796959493929190610c84565b61012c61021a565b005b61012c610382565b6000546040516001600160a01b0390911681526020016100cc565b6100c260055481565b6100c2610168366004610c33565b610396565b61012c61017b366004610c33565b6103b7565b6100c261018e366004610cd1565b6103fa565b61012c6101a1366004610cfb565b61042b565b61012c6101b4366004610c11565b61086b565b600281815481106101c957600080fd5b600091825260209091206007909102018054600182015460028301546003840154600485015460058601546006909601549496506001600160a01b0393841695928416949190931692919060ff1687565b6102226108e4565b6000600554426102329190610d53565b6001549091505b801561037e5760006002600161024f8185610d6c565b8154811061025f5761025f610d7f565b90600052602060002001548154811061027a5761027a610d7f565b6000918252602082206007909102019150600682015460ff1660048111156102a4576102a4610c4c565b1480156102b5575082816005015411155b1561036b576102c38161093e565b60068201805460ff191660018360048111156102e1576102e1610c4c565b02179055504260058201556002810154600182015482546003840154600485015460068601546040516001600160a01b0396871696958616957fb963e225b0c50011310ec4e83eb68b42e946d252b470f807199467b282dc83959461035094911692909160ff90911690610d95565b60405180910390a461036b610366600184610d6c565b610b2b565b508061037681610dc1565b915050610239565b5050565b61038a6108e4565b6103946000610ba5565b565b600181815481106103a657600080fd5b600091825260209091200154905081565b6103bf6108e4565b60058190556040518181527f2ca59d6ab9d97324222cdef126efa5fd8ff59080c0c98bab1d8d7bdc931485d49060200160405180910390a150565b6003602052816000526040600020818154811061041657600080fd5b90600052602060002001600091509150505481565b42811161048a5760405162461bcd60e51b815260206004820152602260248201527f52656c656173652074696d65206d75737420626520696e207468652066757475604482015261726560f01b60648201526084015b60405180910390fd5b600082116104da5760405162461bcd60e51b815260206004820181905260248201527f416d6f756e74206d7573742062652067726561746572207468616e207a65726f6044820152606401610481565b604051636eb1769f60e11b8152336004820152306024820152839083906001600160a01b0383169063dd62ed3e90604401602060405180830381865afa158015610528573d6000803e3d6000fd5b505050506040513d601f19601f8201168201806040525081019061054c9190610dd8565b10156105a95760405162461bcd60e51b815260206004820152602660248201527f436f6e7472616374206e6f7420616c6c6f77656420746f207472616e73666572604482015265103a37b5b2b760d11b6064820152608401610481565b60048054600091826105ba83610df1565b91905055905060006040518060e00160405280838152602001336001600160a01b03168152602001886001600160a01b03168152602001876001600160a01b031681526020018681526020018581526020016000600481111561061f5761061f610c4c565b9052600254909150821461063557610635610e0a565b6002805460018181018355600092909252825160079091027f405787fa12a823e0f2b7631cc41b3ba8828b3321ca811111fa75cd3aa3bb5ace810191825560208401517f405787fa12a823e0f2b7631cc41b3ba8828b3321ca811111fa75cd3aa3bb5acf820180546001600160a01b039283166001600160a01b03199182161790915560408601517f405787fa12a823e0f2b7631cc41b3ba8828b3321ca811111fa75cd3aa3bb5ad08401805491841691831691909117905560608601517f405787fa12a823e0f2b7631cc41b3ba8828b3321ca811111fa75cd3aa3bb5ad18401805491909316911617905560808401517f405787fa12a823e0f2b7631cc41b3ba8828b3321ca811111fa75cd3aa3bb5ad282015560a08401517f405787fa12a823e0f2b7631cc41b3ba8828b3321ca811111fa75cd3aa3bb5ad382015560c08401517f405787fa12a823e0f2b7631cc41b3ba8828b3321ca811111fa75cd3aa3bb5ad49091018054859460ff19909116908360048111156107b9576107b9610c4c565b0217905550506001805480820182557fb10e2d527612073b26eecdfd717e6a320cf44b4afac2b0732d9fcbe2b7fa0cf6018490553360008181526003602090815260408083208054958601815583529181902090930186905580516001600160a01b038b811682529381018a9052908101889052918a1692509084907f0c069af48efe8c4774583c970195d9611a7c86433c5f75384b1f98cfe7f2fa979060600160405180910390a450505050505050565b6108736108e4565b6001600160a01b0381166108d85760405162461bcd60e51b815260206004820152602660248201527f4f776e61626c653a206e6577206f776e657220697320746865207a65726f206160448201526564647265737360d01b6064820152608401610481565b6108e181610ba5565b50565b6000546001600160a01b031633146103945760405162461bcd60e51b815260206004820181905260248201527f4f776e61626c653a2063616c6c6572206973206e6f7420746865206f776e65726044820152606401610481565b60038101546004808301546001840154604051636eb1769f60e11b81526001600160a01b03918216938101939093523060248401526000931691829063dd62ed3e90604401602060405180830381865afa1580156109a0573d6000803e3d6000fd5b505050506040513d601f19601f820116820180604052508101906109c49190610dd8565b10156109d35750600292915050565b60048381015460018501546040516370a0823160e01b81526001600160a01b03918216938101939093529091908316906370a0823190602401602060405180830381865afa158015610a29573d6000803e3d6000fd5b505050506040513d601f19601f82011682018060405250810190610a4d9190610dd8565b1015610a5c5750600392915050565b600183015460028401546004808601546040516323b872dd60e01b81526001600160a01b039485169281019290925291831660248201526044810191909152908216906323b872dd906064016020604051808303816000875af1925050508015610ae3575060408051601f3d908101601f19168201909252610ae091810190610e20565b60015b610b21573d808015610b11576040519150601f19603f3d011682016040523d82523d6000602084013e610b16565b606091505b506004949350505050565b5060019392505050565b60018054600091610b3b91610d6c565b905060018181548110610b5057610b50610d7f565b906000526020600020015460018381548110610b6e57610b6e610d7f565b6000918252602090912001556001805480610b8b57610b8b610e42565b600190038181906000526020600020016000905590555050565b600080546001600160a01b038381166001600160a01b0319831681178455604051919092169283917f8be0079c531659141344cd1fd0a4f28419497f9722a3daafe3b4186f6b6457e09190a35050565b80356001600160a01b0381168114610c0c57600080fd5b919050565b600060208284031215610c2357600080fd5b610c2c82610bf5565b9392505050565b600060208284031215610c4557600080fd5b5035919050565b634e487b7160e01b600052602160045260246000fd5b60058110610c8057634e487b7160e01b600052602160045260246000fd5b9052565b8781526001600160a01b0387811660208301528681166040830152851660608201526080810184905260a0810183905260e08101610cc560c0830184610c62565b98975050505050505050565b60008060408385031215610ce457600080fd5b610ced83610bf5565b946020939093013593505050565b60008060008060808587031215610d1157600080fd5b610d1a85610bf5565b9350610d2860208601610bf5565b93969395505050506040820135916060013590565b634e487b7160e01b600052601160045260246000fd5b80820180821115610d6657610d66610d3d565b92915050565b81810381811115610d6657610d66610d3d565b634e487b7160e01b600052603260045260246000fd5b6001600160a01b03841681526020810183905260608101610db96040830184610c62565b949350505050565b600081610dd057610dd0610d3d565b506000190190565b600060208284031215610dea57600080fd5b5051919050565b600060018201610e0357610e03610d3d565b5060010190565b634e487b7160e01b600052600160045260246000fd5b600060208284031215610e3257600080fd5b81518015158114610c2c57600080fd5b634e487b7160e01b600052603160045260246000fdfea2646970667358221220984799f5f8a0a8f79bd16c4ca1b69abac9c4f8e0ff64902431e69de871e555f464736f6c63430008110033",
  "devdoc": {
    "kind": "dev",
    "methods": {
      "owner()": {
        "details": "Returns the address of the current owner."
      },
      "renounceOwnership()": {
        "details": "Leaves the contract without owner. It will not be possible to call `onlyOwner` functions. Can only be called by the current owner. NOTE: Renouncing ownership will leave the contract without an owner, thereby disabling any functionality that is only available to the owner."
      },
      "transferOwnership(address)": {
        "details": "Transfers ownership of the contract to a new account (`newOwner`). Can only be called by the current owner."
      }
    },
    "version": 1
  },
  "userdoc": {
    "kind": "user",
    "methods": {},
    "version": 1
  },
  "storageLayout": {
    "storage": [
      {
        "astId": 7,
        "contract": "contracts/TokenSender.sol:TokenSender",
        "label": "_owner",
        "offset": 0,
        "slot": "0",
        "type": "t_address"
      },
      {
        "astId": 244,
        "contract": "contracts/TokenSender.sol:TokenSender",
        "label": "scheduledSends",
        "offset": 0,
        "slot": "1",
        "type": "t_array(t_uint256)dyn_storage"
      },
      {
        "astId": 248,
        "contract": "contracts/TokenSender.sol:TokenSender",
        "label": "allSends",
        "offset": 0,
        "slot": "2",
        "type": "t_array(t_struct(ScheduledSend)241_storage)dyn_storage"
      },
      {
        "astId": 253,
        "contract": "contracts/TokenSender.sol:TokenSender",
        "label": "sendsByAddress",
        "offset": 0,
        "slot": "3",
        "type": "t_mapping(t_address,t_array(t_uint256)dyn_storage)"
      },
      {
        "astId": 255,
        "contract": "contracts/TokenSender.sol:TokenSender",
        "label": "nextScheduledSendId",
        "offset": 0,
        "slot": "4",
        "type": "t_uint256"
      },
      {
        "astId": 258,
        "contract": "contracts/TokenSender.sol:TokenSender",
        "label": "executionInterval",
        "offset": 0,
        "slot": "5",
        "type": "t_uint256"
      }
    ],
    "types": {
      "t_address": {
        "encoding": "inplace",
        "label": "address",
        "numberOfBytes": "20"
      },
      "t_array(t_struct(ScheduledSend)241_storage)dyn_storage": {
        "base": "t_struct(ScheduledSend)241_storage",
        "encoding": "dynamic_array",
        "label": "struct TokenSender.ScheduledSend[]",
        "numberOfBytes": "32"
      },
      "t_array(t_uint256)dyn_storage": {
        "base": "t_uint256",
        "encoding": "dynamic_array",
        "label": "uint256[]",
        "numberOfBytes": "32"
      },
      "t_enum(Status)225": {
        "encoding": "inplace",
        "label": "enum TokenSender.Status",
        "numberOfBytes": "1"
      },
      "t_mapping(t_address,t_array(t_uint256)dyn_storage)": {
        "encoding": "mapping",
        "key": "t_address",
        "label": "mapping(address => uint256[])",
        "numberOfBytes": "32",
        "value": "t_array(t_uint256)dyn_storage"
      },
      "t_struct(ScheduledSend)241_storage": {
        "encoding": "inplace",
        "label": "struct TokenSender.ScheduledSend",
        "members": [
          {
            "astId": 227,
            "contract": "contracts/TokenSender.sol:TokenSender",
            "label": "id",
            "offset": 0,
            "slot": "0",
            "type": "t_uint256"
          },
          {
            "astId": 229,
            "contract": "contracts/TokenSender.sol:TokenSender",
            "label": "sender",
            "offset": 0,
            "slot": "1",
            "type": "t_address"
          },
          {
            "astId": 231,
            "contract": "contracts/TokenSender.sol:TokenSender",
            "label": "receiver",
            "offset": 0,
            "slot": "2",
            "type": "t_address"
          },
          {
            "astId": 233,
            "contract": "contracts/TokenSender.sol:TokenSender",
            "label": "token",
            "offset": 0,
            "slot": "3",
            "type": "t_address"
          },
          {
            "astId": 235,
            "contract": "contracts/TokenSender.sol:TokenSender",
            "label": "amount",
            "offset": 0,
            "slot": "4",
            "type": "t_uint256"
          },
          {
            "astId": 237,
            "contract": "contracts/TokenSender.sol:TokenSender",
            "label": "releaseTime",
            "offset": 0,
            "slot": "5",
            "type": "t_uint256"
          },
          {
            "astId": 240,
            "contract": "contracts/TokenSender.sol:TokenSender",
            "label": "status",
            "offset": 0,
            "slot": "6",
            "type": "t_enum(Status)225"
          }
        ],
        "numberOfBytes": "224"
      },
      "t_uint256": {
        "encoding": "inplace",
        "label": "uint256",
        "numberOfBytes": "32"
      }
    }
  }
}